:020000040800F2
:100000000000102419140008D1110008D7110008AD
:10001000DD110008E3110008E911000800000000EC
:10002000000000000000000000000000EF110008C8
:10003000FD110008000000000B1200081912000852
:10004000691400086914000869140008691400089C
:10005000691400086914000869140008691400088C
:10006000691400086914000869140008691400087C
:10007000691400086914000869140008691400086C
:10008000691400086914000869140008691400085C
:10009000691400086914000869140008691400084C
:1000A000691400086914000869140008691400083C
:1000B000691400086914000869140008691400082C
:1000C000691400086914000869140008691400081C
:1000D000691400086914000869140008691400080C
:1000E00069140008691400086914000869140008FC
:1000F00069140008691400086914000869140008EC
:1001000069140008691400086914000869140008DB
:1001100069140008691400086914000869140008CB
:1001200069140008691400086914000869140008BB
:1001300069140008000000000000000069140008B5
:10014000691400086914000869140008691400089B
:10015000691400086914000869140008691400088B
:10016000691400086914000869140008691400087B
:10017000691400086914000869140008691400086B
:10018000691400086914000869140008691400085B
:10019000691400086914000869140008691400084B
:1001A000691400086914000869140008691400083B
:1001B000691400086914000869140008691400082B
:1001C0006914000869140008000000000000000025
:1001D000000000000000000069140008000000009A
:1001E000000000000000000000000000000000000F
:1001F00000000000000000006914000869140008F5
:10020000691400086914000800000000691400085F
:1002100069140008691400086914000869140008CA
:10022000691400086914000869140008000000003F
:10023000691400086914000800000000691400082F
:10024000691400086914000869140008691400089A
:10025000691400086914000869140008691400088A
:10026000691400086914000869140008691400087A
:1002700069140008691400086914000800000000EF
:1002800069140008691400080000000069140008DF
:1002900000000000691400086914000869140008CF
:0C02A000691400086914000869140008C3
:1002AC0010B5054C237833B9044B13B10448AFF3A4
:1002BC0000800123237010BD1000002400000000FA
:1002CC00385D000808B5034B1BB103490348AFF375
:1002DC00008008BD0000000014000024385D0008F8
:1002EC0080B582B000AF78600B46FB70786801F087
:1002FC005FFE0346002B01D0012328E000F0D4FD63
:10030C00786800F028F80346002B01D001231EE08A
:10031C00786800F09DF80346002B01D0012316E00D
:10032C00012001F02FF9786800F0DEF90346002B6C
:10033C0001D001230BE0FB78002B07D0786800F08C
:10034C0045F90346002B01D0012300E00023184699
:10035C000837BD4680BD80B596B000AF786007F118
:10036C00080350220021184605F0D8FC0023BB607E
:10037C000023FB600023FB610023FB620023BB64B2
:10038C0000233B6500237B6500237B6300233B63D9
:10039C000023BB630023FB6301237B610023BB6150
:1003AC004FF40053BB6266233B6100237B62002346
:1003BC003B6200233B640023FB6400237B6407F156
:1003CC00080341F288321946786801F018FE03469A
:1003DC00002B01D0012336E00023BB600023FB601F
:1003EC000023FB610023FB620023BB6400233B65FD
:1003FC0000237B6500237B6300233B630023BB63EB
:10040C000023FB6301237B610023BB614FF400538A
:10041C00BB6299233B6100237B6200233B62002378
:10042C003B640023FB6400237B6407F1080341F267
:10043C0088321946786801F0E2FD0346002B01D0A2
:10044C00012300E0002318465837BD4680BD00004C
:10045C0080B584B000AF786000233B730023FB723F
:10046C000023BB720023FB730023BB7300237B733D
:10047C0000233B8107F1080300221946786800F03D
:10048C0086FA0346002B01D0012398E007F10C03F8
:10049C0001221946786800F011FA0346002B01D0AE
:1004AC0001238CE007F10B0302221946786800F057
:1004BC0005FA0346002B01D0012380E007F10A0363
:1004CC0003221946786800F0F9F90346002B01D095
:1004DC00012374E00023FB730223BB7300237B73A3
:1004EC00394B1B78002B53D0786801F061FD00F07C
:1004FC00DBFC7868FFF72FFFF97B0123012278687A
:10050C0000F09CFA0346002B01D0012357E0B97B85
:10051C0000230222786800F091FA0346002B01D0E8
:10052C0001234CE0797B00230322786800F086FAE3
:10053C000346002B01D0012341E0012001F022F8F9
:10054C0007F10C0301221946786800F0B7F903464D
:10055C00002B01D0012332E007F10B0302221946D4
:10056C00786800F0ABF90346002B01D0012326E09C
:10057C0007F10A0303221946786800F09FF9034635
:10058C00002B01D001231AE00F4B00221A7015E04A
:10059C00B97B00230222786800F050FA0346002B46
:1005AC0001D001230BE0797B00230322786800F053
:1005BC0045FA0346002B01D0012300E00023184626
:1005CC001037BD4680BD00BF2C00002480B59CB008
:1005DC0000AF786000233B6200237B6200237B63C7
:1005EC0000237B6400233B660023BB660023FB6671
:1005FC000023FB640023BB6400233B6500237B6565
:10060C000123FB6200233B634FF400533B6406233E
:10061C00BB620023FB630023BB630023BB65002389
:10062C007B660023FB6507F1200341F288321946F3
:10063C00786801F0E4FC0346002B01D001234FE065
:10064C0000233B6200237B6200237B6300237B64DB
:10065C0000233B660023BB660023FB660023FB6480
:10066C000023BB6400233B6500237B650123FB62F5
:10067C0000233B634FF400533B640523BB62002310
:10068C00FB630023BB634FF08073BB6500237B6669
:10069C000123FB6507F1200341F288321946786883
:1006AC0001F0ADFC0346002B01D0012318E002231E
:1006BC00FB6002233B6100237B611023FB614FF441
:1006CC008003BB6107F10C0341F28832194678684C
:1006DC0001F038FE0346002B01D0012300E000237B
:1006EC0018467037BD4680BD80B59CB000AF7860B1
:1006FC0000233B6200237B6200237B6300237B642B
:10070C0000233B660023BB660023FB660023FB64CF
:10071C000023BB6400233B6500237B650123FB6244
:10072C0000233B634FF400533B640523BB6200235F
:10073C00FB630023BB634FF08073BB6500237B66B8
:10074C000123FB6507F1200341F2883219467868D2
:10075C0001F055FC0346002B01D0012318E00023C7
:10076C00FB6001233B6100237B611023FB614FF491
:10077C008003BB6107F10C0341F28832194678689B
:10078C0001F0E0FD0346002B01D0012300E0002323
:10079C0018467037BD4680BD80B598B000AF786004
:1007AC0007F1100350220021184605F0B7FA07F1A3
:1007BC00080300221A605A6001233B6100237B610D
:1007CC0000237B6200237B6300233B650023BB6516
:1007DC000023FB650023FB630023BB6300233B6406
:1007EC0000237B640123FB6100233B624FF4005325
:1007FC003B63EB23BB614FF44073FB620023BB6292
:10080C004FF04073BB6406237B650023FB6407F148
:10081C00100341F288321946786801F0F0FB034668
:10082C00002B01D0012345E002233B6100237B61B7
:10083C0000237B6200237B6300233B650023BB65A5
:10084C000023FB650023FB630023BB6300233B6495
:10085C0000237B640123FB6100233B624FF40053B4
:10086C003B633223BB614FF48073FB620023BB629A
:10087C004FF04073BB6400237B650023FB6407F1DE
:10088C00100341F288321946786801F0B8FB034630
:10089C00002B01D001230DE00023BB6007F10803FE
:1008AC001946786801F0D6FD0346002B01D00123D0
:1008BC0000E0002318466037BD4680BD80B598B077
:1008CC0000AFF860B9601346FB7107F110035022BA
:1008DC000021184605F022FA00233B6100237B61BE
:1008EC0000237B6200237B6300233B650023BB65F5
:1008FC000023FB650023FB630023BB6300233B64E5
:10090C0000237B640123FB6100233B624FF4005303
:10091C003B630023BB610023FB620023BB624FF0EF
:10092C008073BB6400237B650123FB64FB79012B83
:10093C0002D10523BB610DE0FB79022B02D13523DB
:10094C00BB6107E0FB79032B02D11523BB6101E0EE
:10095C009F23BB6107F1100341F288321946F868F6
:10096C0001F04DFB0346002B01D001230BE041F2BB
:10097C008832B968F86801F042FC0346002B01D0BC
:10098C00012300E0002318466037BD4680BD80B5CA
:10099C0098B000AFF860B9601346FB7107F1100313
:1009AC0050220021184605F0B9F900233B610023C1
:1009BC007B6100237B6200237B6300233B65002368
:1009CC00BB650023FB650023FB630023BB63002393
:1009DC003B6400237B640123FB6100233B624FF4E7
:1009EC0000533B630023BB610023FB620023BB620B
:1009FC004FF08073BB6400237B650123FB649F2352
:100A0C00BB6107F1100341F288321946F86801F016
:100A1C00F6FA0346002B01D001230BE041F2883299
:100A2C00B968F86801F0EBFB0346002B01D00123F9
:100A3C0000E0002318466037BD4680BD80B596B0F7
:100A4C0000AF7860084611461A460346FB700B4609
:100A5C00BB7013467B700023BB600023FB6000233C
:100A6C00FB610023FB620023BB6400233B65002376
:100A7C007B6500237B6300233B630023BB63002364
:100A8C00FB6301237B610023BB614FF40053BB620A
:100A9C0004233B6100237B6200233B6200233B6405
:100AAC000023FB6400237B647B78002B2BD007F1A5
:100ABC00080341F288321946786801F0A0FA03461F
:100ACC00002B01D0012364E07868FFF70DFE03468C
:100ADC00002B01D001235CE050233B6107F108039C
:100AEC0041F288321946786801F089FA0346002BE6
:100AFC0001D001234DE07868FFF7F6FD0346002B8B
:100B0C0004D0012345E07868FFF760FDBB78012B2A
:100B1C0002D101233B610DE0BB78022B02D13123C2
:100B2C003B6107E0BB78032B02D111233B6101E051
:100B3C0001232EE04FF080733B6401237B647868C3
:100B4C00FFF744FD0346002B01D0012321E007F100
:100B5C00080341F288321946786801F050FA0346CE
:100B6C00002B01D0012314E0FB1C41F28832194602
:100B7C00786801F0D1FA0346002B01D0012308E07C
:100B8C007868FFF7B1FD0346002B01D0012300E08C
:100B9C00002318465837BD4680BD000080B58AB08A
:100BAC0000AF07F1140300221A605A609A60DA60F1
:100BBC001A61314BD3F840312F4A43F08003C2F80D
:100BCC0040312D4BD3F8403103F080033B613B693E
:100BDC00294BD3F84031284A43F00403C2F8403182
:100BEC00254BD3F8403103F00403FB60FB68224B28
:100BFC00D3F84031204A43F00103C2F840311E4B78
:100C0C00D3F8403103F00103BB60BB681A4BD3F837
:100C1C004031194A43F00203C2F84031164BD3F865
:100C2C00403103F002037B607B68134BD3F84031F7
:100C3C00114A43F01003C2F840310F4BD3F8403146
:100C4C0003F010033B603B68002202210B4801F0CB
:100C5C00D7F802237B610123BB610023FB610023D6
:100C6C003B6207F114031946044800F00FFE00BF65
:100C7C002837BD4680BD00BF004402580010025802
:100C8C0080B586B000AF00F0D1F800F0E9FB00F0C1
:100C9C005FF8FFF783FF00F007F900F035FB4FF426
:100CAC007A7000F06FFC01220221254801F0A8F8AF
:100CBC0000233B613B69DBB219462248FFF710FB6E
:100CCC002048FFF769FD4FF0104304331B68FB60AD
:100CDC0072B600BF02F0D8FB1B4B00221A601A4BF5
:100CEC0000225A60184B00229A600023FB7510E01A
:100CFC00164AFB7D20334FF0FF3142F82310134A84
:100D0C00FB7D60334FF0FF3142F82310FB7D013344
:100D1C00FB75FB7D072BEBD962B600BF00237B6014
:100D2C007B6883F3148800BF4FF010431B68BB60D3
:100D3C00BB6883F3088800BFFB689847FEE700BFD9
:100D4C00001002583000002410E000E000E100E048
:100D5C0080B59CB000AF07F124034C22002118464B
:100D6C0004F0DCFF3B1D20220021184604F0D6FFC6
:100D7C00022002F04FFB00233B602B4B9B692A4A5D
:100D8C0043F440439361284B9B6903F440433B601D
:100D9C003B6800BF244B9B6903F40053B3F5005F21
:100DAC00F8D101237B624FF48033BB620223BB6416
:100DBC000223FB6401233B6520237B650223BB6577
:100DCC000223FB6502233B660C237B660023BB6678
:100DDC000023FB6607F12403184602F085FC03464A
:100DEC00002B01D000F05AF83F237B600323BB603B
:100DFC000023FB6000233B6140237B614023BB61EC
:100E0C004FF48063FB6140233B623B1D0721184676
:100E1C0003F06EF80346002B01D000F03FF800BF42
:100E2C007037BD4680BD00BF0048025880B584B005
:100E3C0000AF3B4600221A605A609A60DA6000F0FC
:100E4C00A9FC01233B7000237B704FF010437B60A7
:100E5C0017233B7200237B720023BB720323FB72AC
:100E6C0000233B7300237B730023BB730023FB73B2
:100E7C003B46184600F0C6FC01237B704FF0006324
:100E8C007B6010233B723B46184600F0BBFC0420F1
:100E9C0000F098FC00BF1037BD4680BD80B400AF99
:100EAC0072B600BFFEE7000080B586B000AF3B46CF
:100EBC0000221A605A609A60DA601A615A61274BF4
:100ECC00274A1A60254B01225A60244B00229A6053
:100EDC00224B0022DA60214B17221A611F4B04228D
:100EEC005A611E4B00229A611C4B0022DA611B4B8B
:100EFC0000221A62194B03225A62184B00229A6282
:100F0C00164B0022DA62154B00221A63134B08228F
:100F1C009A63124B0022DA63104B00221A640F48BA
:100F2C0000F088FF0346002B01D0FFF7B7FF012329
:100F3C003B600123BB604FF00113FB603B4641F269
:100F4C0088321946054801F0E3FA0346002B01D01C
:100F5C00FFF7A4FF00BF1837BD4680BD300000244A
:100F6C000050005280B5BAB000AF786007F1D403DE
:100F7C0000221A605A609A60DA601A6107F11C0349
:100F8C00B8220021184604F0C9FE7B681B68604A31
:100F9C00934240F0B8804FF00073FB6100237B66F6
:100FAC0007F11C03184603F0D3FA0346002B01D0BB
:100FBC00FFF774FF574BD3F83431564A43F4001300
:100FCC00C2F83431534BD3F8343103F40013BB6102
:100FDC00BB69504BD3F834314E4A43F48043C2F8CA
:100FEC0034314C4BD3F8343103F480437B617B694F
:100FFC00484BD3F84031474A43F00403C2F8403120
:10100C00444BD3F8403103F004033B613B69414B43
:10101C00D3F840313F4A43F00103C2F840313D4B15
:10102C00D3F8403103F00103FB60FB68394BD3F874
:10103C004031384A43F00203C2F84031354BD3F803
:10104C00403103F00203BB60BB6840F60C43C7F8A9
:10105C00D4300223C7F8D8300023C7F8DC30032380
:10106C00C7F8E0300923C7F8E43007F1D403194678
:10107C00294800F00BFC0223C7F8D4300223C7F830
:10108C00D8300023C7F8DC300323C7F8E03009233D
:10109C00C7F8E43007F1D4031946204800F0F6FBFA
:1010AC000423C7F8D4300223C7F8D8300023C7F87C
:1010BC00DC300323C7F8E0300923C7F8E43007F12C
:1010CC00D4031946164800F0E1FB164B1B78002B95
:1010DC0019D00423C7F8D4301123C7F8D830012312
:1010EC00C7F8DC300323C7F8E0300023C7F8E4303E
:1010FC0007F1D4031946084800F0C8FB012204216B
:10110C00054800F07DFE00BFE837BD4680BD00BF3E
:10111C0000500052004402580008025800000258C7
:10112C00000402582C00002480B582B000AF786017
:10113C007B681B68114A93421CD1114BD3F8343194
:10114C000F4A23F40013C2F834310D4BD3F8343169
:10115C000B4A23F48043C2F8343140F60C41094861
:10116C0000F044FD0221084800F040FD042107482E
:10117C0000F03CFD00BF0837BD4680BD005000525A
:10118C00004402580008025800000258000402589B
:10119C0080B483B000AF0A4BD3F85431084A43F003
:1011AC000203C2F85431064BD3F8543103F0020356
:1011BC007B607B6800BF0C37BD465DF8047B7047D5
:1011CC000044025880B400AFFEE780B400AFFEE7E5
:1011DC0080B400AFFEE780B400AFFEE780B400AF90
:1011EC00FEE780B400AF00BFBD465DF8047B7047DE
:1011FC0080B400AF00BFBD465DF8047B704780B47F
:10120C0000AF00BFBD465DF8047B704780B500AFF2
:10121C0000F098F900BF80BD80B400AF324BD3F81A
:10122C008830314A43F47003C2F888302F4B1B6866
:10123C0003F00F03022B07D82C4B1B6823F00F0372
:10124C002A4A43F003031360294B1B68284A43F0D6
:10125C0001031360264B00221A61254B1A6824499E
:10126C00244B13400B60214B1B6803F00C03002B29
:10127C0007D01E4B1B6823F00F031C4A43F00303DB
:10128C0013601B4B00229A61194B0022DA61184B38
:10129C0000221A62164B184A9A62154B174ADA62E8
:1012AC00134B174A1A63124B00225A63104B144A01
:1012BC009A630F4B0022DA630D4B114A1A640C4BE4
:1012CC0000225A640A4B1B68094A23F480231360DA
:1012DC00074B00221A660B4B43F2D2021A6000BF76
:1012EC00BD465DF8047B704700ED00E00020005225
:1012FC00004402587FEDF6EA000202020000FF01F2
:10130C00800201010040005280B588B000AF07F1A7
:10131C000C0300221A605A609A60DA601A613B462C
:10132C0000221A605A609A60254B264A1A60244B98
:10133C0000225A60224B00229A60214B4FF0FF3260
:10134C00DA601F4B00221A611D4B00229A611C4867
:10135C0004F06EF90346002B01D0FFF79FFD072325
:10136C00FB6070233B6100237B610023BB61042382
:10137C00FB6107F10C031946114804F0B0F9034660
:10138C00002B01D0FFF78AFD00233B600023BB60DC
:10139C003B4619460A4804F0E9FB0346002B01D0F2
:1013AC00FFF77CFD4FF48041054804F06DFC0346CB
:1013BC00002B01D0FFF772FD00BF2037BD4680BD6A
:1013CC0090000024000C004080B485B000AF786021
:1013DC007B681B680B4A93420ED10B4BD3F84831F8
:1013EC00094A43F00803C2F84831074BD3F8483197
:1013FC0003F00803FB60FB6800BF1437BD465DF8C3
:10140C00047B7047000C004000440258DFF834D0D5
:10141C00FFF702FF0C480D490D4A002302E0D45897
:10142C00C4500433C4188C42F9D30A4A0A4C002322
:10143C0001E013600432A242FBD304F04BFCFFF733
:10144C001FFC704700001024000000241000002432
:10145C00685D000810000024E0000024FEE7000096
:10146C0080B582B000AF032000F062F902F0F6FE06
:10147C000246154B9B691B0A03F00F031349CB5C07
:10148C0003F01F0322FA03F37B600F4B9B6903F0FD
:10149C000F030E4AD35C03F01F037A6822FA03F39E
:1014AC000B4A13600B4A7B6813600F2000F014F892
:1014BC000346002B01D0012302E0FFF769FE002355
:1014CC0018460837BD4680BD00440258505D0008E0
:1014DC00040000240000002480B582B000AF7860C6
:1014EC00154B1B78002B01D1012321E0134B1A68FB
:1014FC00114B1B7819464FF47A73B3FBF1F3B2FB23
:10150C00F3F3184600F039F90346002B01D0012300
:10151C000EE07B680F2B0AD8002279684FF0FF3061
:10152C0000F011F9064A7B681360002300E00123E8
:10153C0018460837BD4680BD0C000024000000246E
:10154C000800002480B400AF064B1B781A46064BEB
:10155C001B681344044A136000BFBD465DF8047B4E
:10156C00704700BF0C000024DC00002480B400AFE6
:10157C00034B1B681846BD465DF8047B704700BFE3
:10158C00DC00002480B584B000AF7860FFF7EEFF7C
:10159C00B8607B68FB60FB68B3F1FF3F05D00A4B7A
:1015AC001B781A46FB681344FB6000BFFFF7DEFF95
:1015BC000246BB68D31AFA689A42F7D800BF00BF3C
:1015CC001037BD4680BD00BF0C00002480B485B030
:1015DC0000AF78607B6803F00703FB600B4BDB68A4
:1015EC00BB60BA684FF6FF031340BB60FB681A027E
:1015FC00BB681A43064B1343BB60044ABB68D360F9
:10160C0000BF1437BD465DF8047B704700ED00E069
:10161C000000FA0580B400AF044BDB681B0A03F032
:10162C0007031846BD465DF8047B704700ED00E0EB
:10163C0080B483B000AF03463960FB80B7F9063045
:10164C00002B0ADB3B68DAB20C49B7F90630120101
:10165C00D2B20B4483F800230AE03B68DAB20849A3
:10166C00FB8803F00F03043B1201D2B20B441A7631
:10167C0000BF0C37BD465DF8047B704700E100E00D
:10168C0000ED00E080B489B000AFF860B9607A601A
:10169C00FB6803F00703FB61FB69C3F10703042B31
:1016AC0028BF0423BB61FB690433062B02D9FB69F9
:1016BC00033B00E000237B614FF0FF32BB6902FA71
:1016CC0003F3DA43BB681A407B699A404FF0FF3151
:1016DC007B6901FA03F3D9437B680B40134318462B
:1016EC002437BD465DF8047B7047000080B582B09E
:1016FC0000AF78607B68013BB3F1807F01D301239D
:10170C000FE00A4A7B68013B53600F214FF0FF301A
:10171C00FFF78EFF054B00229A60044B07221A60DC
:10172C00002318460837BD4680BD00BF10E000E01E
:10173C0080B582B000AF78607868FFF747FF00BFD4
:10174C000837BD4680BD80B586B000AF0346B96092
:10175C007A60FB81FFF75EFF78617A68B968786917
:10176C00FFF790FF0246B7F90E3011461846FFF707
:10177C005FFF00BF1837BD4680BD80B582B000AF9B
:10178C0078607868FFF7B2FF034618460837BD4605
:10179C0080BD000080B400AFBFF35F8F00BF074B6C
:1017AC005B6A064A23F480335362054B00225A606D
:1017BC0000BFBD465DF8047B704700BF00ED00E044
:1017CC0090ED00E080B483B000AF78600B4A7B688A
:1017DC0043F0010353600A4B5B6A094A43F48033BC
:1017EC005362BFF34F8F00BFBFF36F8F00BF00BFBB
:1017FC000C37BD465DF8047B704700BF90ED00E0F0
:10180C0000ED00E080B483B000AF78607B685A785C
:10181C001D4B9A607B681B78002B29D01A4A7B6879
:10182C005B68D3607B681B7B1A077B68DB7A1B06C3
:10183C001A437B689B7ADB041A437B685B7B9B04B3
:10184C001A437B689B7B5B041A437B68DB7B1B0422
:10185C001A437B685B7A1B021A437B681B7A5B001A
:10186C0013437A6812781146074A0B43136105E05B
:10187C00054B0022DA60044B00221A6100BF0C37C2
:10188C00BD465DF8047B704790ED00E080B489B0F4
:10189C0000AF786039600023FB61894B7B6194E178
:1018AC003B681A680121FB6901FA03F313403B61A1
:1018BC003B69002B00F086813B685B6803F00303F7
:1018CC00012B05D03B685B6803F00303022B30D17E
:1018DC007B689B68BB61FB695B00032202FA03F324
:1018EC00DB43BA691340BB613B68DA68FB695B0098
:1018FC0002FA03F3BA691343BB617B68BA699A6055
:10190C007B685B68BB610122FB6902FA03F3DB4372
:10191C00BA691340BB613B685B681B0903F00102A9
:10192C00FB6902FA03F3BA691343BB617B68BA69BA
:10193C005A603B685B6803F00303032B17D07B688A
:10194C00DB68BB61FB695B00032202FA03F3DB4338
:10195C00BA691340BB613B689A68FB695B0002FA89
:10196C0003F3BA691343BB617B68BA69DA603B68FD
:10197C005B6803F00303022B23D1FB69DA087B6855
:10198C00083253F82230BB61FB6903F007039B005C
:10199C000F2202FA03F3DB43BA691340BB613B68C5
:1019AC001A69FB6903F007039B0002FA03F3BA6997
:1019BC001343BB61FB69DA087B680832B96943F8E9
:1019CC0022107B681B68BB61FB695B00032202FA77
:1019DC0003F3DB43BA691340BB613B685B6803F0FC
:1019EC000302FB695B0002FA03F3BA691343BB61A0
:1019FC007B68BA691A603B685B6803F44033002B60
:101A0C0000F0E0802F4BD3F854312E4A43F0020300
:101A1C00C2F854312B4BD3F8543103F00203FB6062
:101A2C00FB68294AFB699B08023352F82330BB61DF
:101A3C00FB6903F003039B000F2202FA03F3DB4361
:101A4C00BA691340BB617B68204A934252D07B68D1
:101A5C001F4A934231D07B681E4A93422BD07B683D
:101A6C001D4A934225D07B681C4A93421FD07B6849
:101A7C001B4A934219D07B681A4A934213D07B6855
:101A8C00194A93420DD07B68184A934207D07B6861
:101A9C00174A934201D109232DE00A232BE0082396
:101AAC0029E0072327E0062325E0052323E0042370
:101ABC0021E003231FE002231DE001231BE000BFF4
:101ACC0080000058004402580004005800000258DE
:101ADC000004025800080258000C0258001002586A
:101AEC000014025800180258001C0258002002581A
:101AFC00002402580023FA6902F00302920093407A
:101B0C00BA691343BB613849FB699B080233BA6954
:101B1C0041F823204FF0B0431B68BB613B69DB43AA
:101B2C00BA691340BB613B685B6803F48013002BFC
:101B3C0003D0BA693B691343BB614FF0B042BB6938
:101B4C0013604FF0B0435B68BB613B69DB43BA6920
:101B5C001340BB613B685B6803F40013002B03D09C
:101B6C00BA693B691343BB614FF0B042BB69536028
:101B7C007B695B68BB613B69DB43BA691340BB6142
:101B8C003B685B6803F40033002B03D0BA693B69F4
:101B9C001343BB617B69BA695A607B691B68BB6183
:101BAC003B69DB43BA691340BB613B685B6803F478
:101BBC008033002B03D0BA693B691343BB617B694B
:101BCC00BA691A60FB690133FB613B681A68FB69EF
:101BDC0022FA03F3002B7FF463AE00BF00BF24375F
:101BEC00BD465DF8047B70470004005880B487B094
:101BFC0000AF7860396000237B61754B3B61D9E0A5
:101C0C0001227B6902FA03F33A681340FB60FB681C
:101C1C00002B00F0CC806F4A7B699B08023352F892
:101C2C002330BB607B6903F003039B000F2202FA95
:101C3C0003F3BA681340BB607B68674A934237D0A2
:101C4C007B68664A934231D07B68654A93422BD0BD
:101C5C007B68644A934225D07B68634A93421FD0C9
:101C6C007B68624A934219D07B68614A934213D0D5
:101C7C007B68604A93420DD07B685F4A934207D0E1
:101C8C007B685E4A934201D1092312E00A2310E0DB
:101C9C0008230EE007230CE006230AE0052308E0E6
:101CAC00042306E0032304E0022302E0012300E006
:101CBC0000237A6902F0030292009340BA689A42B8
:101CCC0036D13B691A68FB68DB431A403B691A60E2
:101CDC003B695A68FB68DB431A403B695A604FF01A
:101CEC00B0435A68FB68DB434FF0B04113404B6084
:101CFC004FF0B0431A68FB68DB434FF0B041134020
:101D0C000B607B6903F003039B000F2202FA03F3C1
:101D1C00BB60304A7B699B08023352F82310BB68C6
:101D2C00DA432C487B699B080A40023340F8232095
:101D3C007B681A687B695B00032101FA03F31A4381
:101D4C007B681A607B69DA087B68083253F82210CA
:101D5C007B6903F007039B000F2202FA03F3DB43BA
:101D6C007A69D20819407B68083243F822107B68E4
:101D7C00DA687B695B00032101FA03F3DB431A4049
:101D8C007B68DA607B685A6801217B6901FA03F38E
:101D9C00DB431A407B685A607B689A687B695B00FE
:101DAC00032101FA03F3DB431A407B689A607B69D9
:101DBC0001337B613A687B6922FA03F3002B7FF4D1
:101DCC001FAF00BF00BF1C37BD465DF8047B7047DA
:101DDC00800000580004005800000258000402580B
:101DEC0000080258000C0258001002580014025847
:101DFC0000180258001C02580020025800240258F7
:101E0C0080B483B000AF78600B467B8013467B7048
:101E1C007B78002B03D07A887B689A6103E07B88FF
:101E2C001A047B689A6100BF0C37BD465DF8047BD1
:101E3C007047000080B586B002AF78600023FB735A
:101E4C00FFF794FBB8607B68002B02D10123FB7376
:101E5C00A6E07B6800229A657B685B6D002B40F0E6
:101E6C009F807868FFF77EF841F28831786800F03F
:101E7C003FFB7B681B689A684C4B13407A68D168AF
:101E8C007A681269013A120411437A685269013A6C
:101E9C00120211437A68526B120111437A68D269AB
:101EAC0011437A6812680B4393607B681B68DB688C
:101EBC0023F4E0217B681A6A7B681B680A43DA60AA
:101ECC007B681B6B19047B68DA6B7B681B680A43A5
:101EDC001A617B681B687A68126C5A617B681B6894
:101EEC001B6823F4F8517B685B68013B1A027B6822
:101EFC001B680A431A607B68DB6D0093BB68002289
:101F0C002021786801F01AF80346FB73FB7B002B49
:101F1C0046D17B681B68DB6823F0FF017B685B6A3A
:101F2C005A1E7B681B680A43DA607B681B681B6857
:101F3C0023F040017B689A687B681B680A431A602F
:101F4C007B681B68D3F8083123F0A0417B689A6A40
:101F5C007B68DB6A1A437B681B680A43C3F8082159
:101F6C007B681B681A687B681B6842F001021A6068
:101F7C007B689B69022B07D17B681B689A687B681E
:101F8C001B6842F002029A607B68DB68B3F1806FD9
:101F9C0003D17B6801225A6502E07B6802225A65F4
:101FAC00FB7B18461037BD4680BD00BF8CF8E0F8AF
:101FBC0080B584B000AF78600023FB737B68002B86
:101FCC0002D10123FB7315E07B681B681A687B68E0
:101FDC001B6822F001021A607B681B689A687B6898
:101FEC001B6822F002029A607868FFF79DF87B6804
:101FFC0000225A65FB7B18461037BD4680BD80B564
:10200C008AB002AFF860B9607A60FFF7AFFAB861D6
:10201C00BB689B6B002BFB685B6D7B617B69022B48
:10202C0004D1FB68DB68B3F1806F15D17B69142B8D
:10203C0007D1BB681B68022B0ED0BB681B68032B37
:10204C000AD07B69242B5BD1BB681B68012B03D0A6
:10205C00BB681B68032B53D17B680093BB690022C0
:10206C002021F86800F06AFF0346FB77FB7F002B0A
:10207C004CD1FB6800229A65B968F86800F096FFAD
:10208C000346FB77FB7F002B40D1BB689B6B002B7F
:10209C000ED17B680093BB6901220221F86800F025
:1020AC004DFF0346FB77FB681B6802225A622DE04A
:1020BC00BB681B68002B03D1FB6804225A6525E022
:1020CC00BB681B68012B0BD1FB685B6D242B03D108
:1020DC00FB6804225A6519E0FB6814225A6515E066
:1020EC00BB681B68022B11D1FB685B6D142B03D1F1
:1020FC00FB6804225A6509E0FB6824225A6505E056
:10210C000123FB77FB6810229A6500E000BFFB7F80
:10211C0018462037BD4680BD80B58AB002AFF86046
:10212C00B9607A60FFF722FAB861FB681B6850331C
:10213C007B61BB68002B05D10123FB77FB68082270
:10214C009A6557E0FB685B6D042B4ED1FB681B68EE
:10215C001B6C5A1CFB68DA64FB68DA6CFB689A64CB
:10216C00FB68BA685A64FB681B681A68FB681B68D2
:10217C0022F040521A607B680093BB690122042153
:10218C00F86800F0DBFE0346FB77FB7F002B13D1D6
:10219C00FB685B6C1A787B691A70FB685B6C5A1C69
:1021AC00FB685A64FB68DB6C5A1EFB68DA64FB68DC
:1021BC00DB6C002BDFD100E000BFFB7F002B19D1C3
:1021CC007B680093BB6901220221F86800F0B6FE1F
:1021DC000346FB77FB7F002B0CD1FB681B680222AC
:1021EC005A62FB6802225A6504E00123FB77FB6804
:1021FC0010229A65FB7F18462037BD4680BD80B5FE
:10220C008CB002AFF860B9607A60FFF7AFF9386252
:10221C00FB681B685033FB61FB681B689B6CBB61E4
:10222C00FB681B68D3F810317B61BB68002B06D1AF
:10223C00012387F82730FB6808229A657CE0FB684D
:10224C005B6D042B72D1FB681B681B6C5A1CFB6802
:10225C00DA64FB68DA6CFB689A64FB68BA685A64E7
:10226C00FB681B681B6823F04052FB681B6842F03C
:10227C0080521A60FB68DB68B3F1806F04D1FB6895
:10228C001B68BA699A6411E0FB681B68D3F80031CB
:10229C0003F4E063002B04D0FB681B68BA699A64F2
:1022AC0004E0FB681B687A69C3F810217B68009313
:1022BC003B6A01220621F86800F040FE034687F8CD
:1022CC00273097F82730002B14D1FB685B6CFA6928
:1022DC001278D2B21A70FB685B6C5A1CFB685A6499
:1022EC00FB68DB6C5A1EFB68DA64FB68DB6C002B4A
:1022FC00DCD100E000BF97F82730002B1CD17B68A5
:10230C0000933B6A01220221F86800F017FE034695
:10231C0087F8273097F82730002B0DD1FB681B6806
:10232C0002225A62FB6802225A6505E0012387F8F3
:10233C002730FB6810229A6597F827301846283703
:10234C00BD4680BD80B58AB002AFF860B9607A60D6
:10235C00FFF70CF9B861FB681B689B6C7B61FB6831
:10236C001B68D3F810313B61FB685B6D042B64D1A7
:10237C00BB68DB68B3F5800F5FD17B680093BB69EA
:10238C0000222021F86800F0D9FD0346FB77FB7F83
:10239C00002B58D1FB681B68BA681268C3F88820F8
:1023AC00FB681B68BA685268C3F88020FB681B681E
:1023BC00BA681269C3F89020FB681B681B6823F08D
:1023CC004352BB689968BB68DB680B431A43FB68D4
:1023DC001B6842F000521A60FB68DB68B3F1806F37
:1023EC0004D1FB681B687A699A6411E0FB681B686E
:1023FC00D3F8003103F4E063002B04D0FB681B68B6
:10240C007A699A6404E0FB681B683A69C3F8102186
:10241C007B680093BB6901220821F86800F08EFDEF
:10242C000346FB77FB7F002B0DD1FB681B68082252
:10243C005A62FB6802225A6505E00123FB77FB68B0
:10244C0010229A6500E000BFFB7F18462037BD467E
:10245C0080BD000080B586B002AF78603960FFF7B0
:10246C0085F8B8607B685B6D042B34D17B68DB6DC1
:10247C000093BB6800222021786800F05FFD0346C2
:10248C00FB73FB7B002B2BD17B6888225A653B6846
:10249C001B68082B11D17B681B683A685268C3F81B
:1024AC0030217B681B6810225A627B681B681A6893
:1024BC007B681B6842F480121A607B681B681A6880
:1024CC000A4B13403A6812681A437B681B6842F047
:1024DC0040521A6004E00123FB737B6810229A655A
:1024EC00FB7B18461037BD4680BD00BFF7FFFFCF02
:1024FC0080B483B000AF786039607B683A68DA6585
:10250C00002318460C37BD465DF8047B704700006D
:10251C0080B594B000AFF860B9607A60002387F89A
:10252C004F30002387F84630FB681B68A34A934260
:10253C0005D10023BB64012387F8453004E0012357
:10254C00BB64002387F84530002387F847301DE033
:10255C0097F847300133D8B297F8472007F11401A8
:10256C0013465B001344DB000B44194600F098FE45
:10257C000346002B05D0012387F84F30FB68082257
:10258C009A6597F84730013387F8473097F847300A
:10259C00012BDDD997F84F30002B40F0C384874BCB
:1025AC001B6803F00103002B0BD0844B1B68834A80
:1025BC0023F00103136097F8463043F0010387F8CA
:1025CC0046307F4B1B6803F00103002B0BD07C4B78
:1025DC001B687B4A23F00103136097F8463043F0E5
:1025EC00020387F846307749BA6C13465B001344F4
:1025FC00DB0007F150021344343B1B68013B9B008A
:10260C000B4459686F48BA6C13465B001344DB00EB
:10261C0007F150021344343B1B68013B21F48072D8
:10262C009B0003445A60674B1B6803F00103002BAB
:10263C0000F0CA80634B1B68624A23F001031360ED
:10264C0097F84530012B40F078815E4997F845208A
:10265C0013465B001344DB0007F1500213443C3B70
:10266C001B68013B9B000B445968564897F8452062
:10267C0013465B001344DB0007F1500213443C3B50
:10268C001B68013B41F002029B0003445A6097F81F
:10269C00452013465B001344DB0007F15002134442
:1026AC00383B1B68002B21D0464997F84520134630
:1026BC005B001344DB0007F150021344383B1B68EA
:1026CC00013B9B000B4459683E4897F84520134644
:1026DC005B001344DB0007F150021344383B1B68CA
:1026EC00013B41F020029B0003445A6097F84520BF
:1026FC0013465B001344DB0007F150021344303BDC
:10270C001B68002B25D02F4997F8452013465B00FA
:10271C001344DB0007F150021344303B1B68013BB0
:10272C0003F001039B000B445968264897F8452099
:10273C0013465B001344DB0007F150021344303B9B
:10274C001B68013B03F0010341F480229B0003440E
:10275C005A6097F8452013465B001344DB0007F1E1
:10276C00500213442C3B1B68002B00F0E6801549EB
:10277C0097F8452013465B001344DB0007F1500229
:10278C0013442C3B1B68013B03F001039B000B44DF
:10279C0059680C4897F8452013465B001344DB003E
:1027AC0007F1500213442C3B1B68013B03F001035F
:1027BC0041F080629B0003445A60BEE0005000521E
:1027CC0000A0005200B40052BA6C13465B001344D4
:1027DC00DB0007F1500213443C3B1B68002B00F05C
:1027EC00AC809D49BA6C13465B001344DB0007F1C7
:1027FC00500213443C3B1B68013B9B000B44596843
:10280C009548BA6C13465B001344DB0007F1500289
:10281C0013443C3B1B68013B21F001029B00034429
:10282C005A60BA6C13465B001344DB0007F150028C
:10283C001344383B1B68002B1FD08749BA6C1346D6
:10284C005B001344DB0007F150021344383B1B6858
:10285C00013B9B000B4459687F48BA6C13465B00E4
:10286C001344DB0007F150021344383B1B68013B57
:10287C0021F010029B0003445A60BA6C13465B00B3
:10288C001344DB0007F150021344303B1B68002B50
:10289C0023D07149BA6C13465B001344DB0007F17B
:1028AC0050021344303B1B68013B03F001039B00B7
:1028BC000B4459686848BA6C13465B001344DB0040
:1028CC0007F150021344303B1B68013B03F001033A
:1028DC0021F480329B0003445A60BA6C13465B00AF
:1028EC001344DB0007F1500213442C3B1B68002BF4
:1028FC0023D05949BA6C13465B001344DB0007F133
:10290C00500213442C3B1B68013B03F001039B005A
:10291C000B4459685048BA6C13465B001344DB00F7
:10292C0007F1500213442C3B1B68013B03F00103DD
:10293C0021F080729B0003445A60BB68196897F8B9
:10294C00452013465B001344DB0007F1500213448F
:10295C003C3B1B6899423CD0BB68596897F84520B2
:10296C0013465B001344DB0007F150021344383B61
:10297C001B6899422DD0BB68996897F8452013467F
:10298C005B001344DB0007F150021344343B1B681B
:10299C0099421ED0BB68D96897F8452013465B0056
:1029AC001344DB0007F150021344303B1B6899427F
:1029BC000FD0BB68196997F8452013465B00134488
:1029CC00DB0007F1500213442C3B1B68994240F08A
:1029DC001E81BB68196897F8452013465B001344A9
:1029EC00DB0007F1500213443C3B1B68994235D184
:1029FC00BB68596897F8452013465B001344DB000D
:102A0C0007F150021344383B1B68994226D1BB682E
:102A1C00D96897F8452013465B001344DB0007F197
:102A2C0050021344303B1B68994217D1BB6819699B
:102A3C0097F8452013465B001344DB0007F1500266
:102A4C0013442C3B1B68994208D1034B1B68024A68
:102A5C0043F001031360DAE000B40052C24997F866
:102A6C00452013465B001344DB0007F1500213446E
:102A7C003C3B1B68013B9B000B445968BA4897F8D8
:102A8C00452013465B001344DB0007F1500213444E
:102A9C003C3B1B68013B21F001029B0003445A6044
:102AAC0097F8452013465B001344DB0007F15002F6
:102ABC001344383B1B68002B21D0AB4997F84520B9
:102ACC0013465B001344DB0007F150021344383B00
:102ADC001B68013B9B000B445968A34897F84520A1
:102AEC0013465B001344DB0007F150021344383BE0
:102AFC001B68013B21F010029B0003445A609A4969
:102B0C0097F8452013465B001344DB0007F1500295
:102B1C001344343B1B68013B9B000B44596892489F
:102B2C0097F8452013465B001344DB0007F1500275
:102B3C001344343B1B68013B21F480729B0003441B
:102B4C005A6097F8452013465B001344DB0007F1ED
:102B5C0050021344303B1B68002B25D0824997F858
:102B6C00452013465B001344DB0007F1500213446D
:102B7C00303B1B68013B03F001039B000B4459687D
:102B8C00794897F8452013465B001344DB0007F1A6
:102B9C0050021344303B1B68013B03F0010321F44A
:102BAC0080329B0003445A6097F8452013465B0023
:102BBC001344DB0007F1500213442C3B1B68002B21
:102BCC0025D0694997F8452013465B001344DB0078
:102BDC0007F1500213442C3B1B68013B03F001032B
:102BEC009B000B445968604897F8452013465B00DE
:102BFC001344DB0007F1500213442C3B1B68013BD0
:102C0C0003F0010321F080729B0003445A60564A82
:102C1C00BB689B68013B9B0013445B6823F44072C8
:102C2C00BB6C5B021A435049BB689B68013B42F486
:102C3C0080729B000B445A60BB685B695A1E4A4BFE
:102C4C001B681B0CDBB29A420AD9474B1B6823F456
:102C5C007F02BB685B69013B1B04434913430B6058
:102C6C00414B1B6803F00103002B00F09B803E4A94
:102C7C00BB681B68013B9B0013445B6823F0030299
:102C8C003949BB681B68013B42F001029B000B44B5
:102C9C005A60BB685B68002B11D0334ABB685B6819
:102CAC00013B9B0013445B6823F030022E49BB6848
:102CBC005B68013B42F010029B000B445A60BB68FE
:102CCC00DB6803F48033002B16D0274ABB68DB6823
:102CDC00013B03F001039B0013445B6823F4E022E7
:102CEC002149BB68DB68013B03F0010342F48032ED
:102CFC009B000B445A6019E0BB68DB68002B15D0B5
:102D0C00194ABB68DB68013B03F001039B001344C9
:102D1C005B6823F0E0621449BB68DB68013B03F09D
:102D2C00010342F080729B000B445A60BB681B6924
:102D3C0003F48033002B19D00B4ABB681B69013B91
:102D4C0003F001039B0013445B6823F4E022064963
:102D5C00BB681B69013B03F0010342F440329B004A
:102D6C000B445A60C6E000BF00B40052BB681B693C
:102D7C00002B00F0BF806E4ABB681B69013B03F05F
:102D8C0001039B0013445B6823F0E0626849BB6855
:102D9C001B69013B03F0010342F040729B000B44A2
:102DAC005A60A7E0624ABB681B68013B9B00134456
:102DBC005B6823F00302BB6C5B001A435C49BB6885
:102DCC001B68013B42F001029B000B445A60BB683C
:102DDC005B68002B14D0564ABB685B68013B9B00B8
:102DEC0013445B6823F03002BB6C5B011A435049FF
:102DFC00BB685B68013B42F010029B000B445A60BD
:102E0C00BB68DB6803F48033002B19D0484ABB68DD
:102E1C00DB68013B03F001039B0013445B6823F464
:102E2C00E022BB6C9B041A434149BB68DB68013B45
:102E3C0003F0010342F480329B000B445A601CE007
:102E4C00BB68DB68002B18D0394ABB68DB68013BD8
:102E5C0003F001039B0013445B6823F0E062BB6C3E
:102E6C009B061A433249BB68DB68013B03F0010344
:102E7C0042F080729B000B445A60BB681B6903F4E0
:102E8C008033002B19D02A4ABB681B69013B03F025
:102E9C0001039B0013445B6823F4E022BB6C9B048E
:102EAC001A432349BB681B69013B03F0010342F43D
:102EBC0040329B000B445A601CE0BB681B69002B22
:102ECC0018D01B4ABB681B69013B03F001039B0034
:102EDC0013445B6823F0E062BB6C9B061A431449F5
:102EEC00BB681B69013B03F0010342F040729B007D
:102EFC000B445A6097F8463003F00103002B05D0C1
:102F0C000C4B1B680B4A43F00103136097F84630D7
:102F1C0003F00203002B05D0074B1B68064A43F055
:102F2C000103136097F84F3018465037BD4680BDEB
:102F3C0000B400520050005200A0005280B584B082
:102F4C0000AFF860B9603B601346FB711AE0BB69D7
:102F5C00B3F1FF3F16D0FEF709FB02463B68D31ACC
:102F6C00BA699A4202D3BB69002B0BD1FB684FF4B0
:102F7C0000725A65FB689B6D43F00102FB689A6511
:102F8C0001230EE0FB681B681A6ABB681340002B18
:102F9C0014BF01230023DBB21A46FB799A42D6D127
:102FAC00002318461037BD4680BD000080B489B0A0
:102FBC0000AF786039600023FB777B681B681A6868
:102FCC007B681B6822F040521A607B689B68002B60
:102FDC000AD17B681B681B6823F080013B685A6828
:102FEC007B681B680A431A603B681B68022B14D170
:102FFC007B681B6803F5C073BB617B681B6803F5BA
:10300C00C4737B617B681B6803F5C8733B617B6889
:10301C001B6803F5D073FB602CE03B681B68032B2B
:10302C0014D17B681B6803F5A073BB617B681B68BC
:10303C0003F5A4737B617B681B6803F5A8733B6184
:10304C007B681B6803F5B073FB6013E07B681B683F
:10305C0003F58073BB617B681B6803F584737B612C
:10306C007B681B6803F588733B617B681B6803F501
:10307C009073FB603B689A6C3B68DB6C1A43BB69D2
:10308C001A603B68DB6A002B12D03B689A6AFB68BB
:10309C001A60BB691B6823F47C123B68D96A3B68D5
:1030AC005B6B19433B681B6B0B431A43BB691A6080
:1030BC007B691B6823F01F023B685B6C1A437B69BE
:1030CC001A603B689B6B002B09D03B681B68002B7C
:1030DC0005D13B68DA6B7B681B68013A1A643B6864
:1030EC00DB68002B00F095803B68DB69002B53D02C
:1030FC003B689B6B002B1ED0BB691A68644B13405A
:10310C003A68D1683A68526911433A6812691143B6
:10311C003A68D26911433A68526A11433A68126AA2
:10312C0011433A68926B11433A68126C0A431A4382
:10313C00BB691A6026E0BB691A68564B13403A68A3
:10314C00D1683A68526911433A68126911433A6876
:10315C00D26911433A68526A11433A68126A0A43B7
:10316C001A43BB691A607B68DB6AB3F1805F09D1D3
:10317C003B685B69082B05D1BB691B6843F0006297
:10318C00BB691A603B689A683B691A607B681B686C
:10319C003A6892699A6474E03B689B6B002B15D07B
:1031AC00BB691A683C4B13403A68D1683A6852695B
:1031BC0011433A68126911433A68926B11433A68A9
:1031CC00126C0A431A43BB691A601DE0BB691B6889
:1031DC0023F03F023B68D9683B685B6919433B6845
:1031EC001B690B431A43BB691A607B68DB6AB3F13A
:1031FC00805F09D13B685B69082B05D1BB691B68F3
:10320C0043F00062BB691A603B689A683B691A60BC
:10321C0037E03B68DB69002B2ED03B689B6B002BA7
:10322C0015D0BB691A681D4B13403A68D1693A68CE
:10323C00526A11433A68126A11433A68926B11430D
:10324C003A68126C0A431A43BB691A600EE0BB69F8
:10325C001B6823F47C523B68D9693B685B6A194351
:10326C003B681B6A0B431A43BB691A607B681B687B
:10327C003A6892699A6404E00123FB777B68082220
:10328C009A65FB7F18462437BD465DF8047B704772
:10329C00C0C0FFF0C0C0FFFFC0FFFFF0FFC0FFF0D9
:1032AC0080B487B000AF03463960FB710023FB7517
:1032BC0000233B61FB79002B05D0FB79022B02D854
:1032CC003B68002B02D10123FB7598E03B68002280
:1032DC001A603B6800225A603B6800229A603B6887
:1032EC000022DA603B6800221A61FB79022B0BD1B9
:1032FC00464B1B6803F00103002B02D1444B3B618E
:10330C0002E04FF400733B610023FB6074E03F4A22
:10331C00FB689B0013445B68BB60BB6803F0010354
:10332C00002B0AD0BA683B69534003F00203002B10
:10333C0003D1FB685A1C3B681A60BB6803F010038E
:10334C00002B0AD0BA683B69534003F02003002BD2
:10335C0003D1FB685A1C3B685A60BB6803F480734A
:10336C00002B0AD0BA683B69534003F40073002B5E
:10337C0003D1FB685A1C3B689A60BB6803F480332A
:10338C00002B18D0BA683B69534003F48023002B00
:10339C0011D1BB6803F40033002B06D1FB68013359
:1033AC0043F480323B68DA6005E0FB68013343F09C
:1033BC0080723B68DA60BB6803F08073002B18D016
:1033CC00BA683B69534003F08063002B11D1BB6892
:1033DC0003F00073002B06D1FB68013343F48032F9
:1033EC003B681A6105E0FB68013343F080723B686F
:1033FC001A61FB680133FB60FB68012B87D9FB7DED
:10340C0018461C37BD465DF8047B704700B400526B
:10341C002202040480B584B000AF7860194BDB68DD
:10342C0003F00403042B0AD0164BDB6803F00703EC
:10343C007A689A4201D001231FE000231DE0114B52
:10344C00DB6823F007020F497B681343CB60FEF760
:10345C008DF8F86009E0FEF789F80246FB68D31A8C
:10346C00B3F57A7F01D9012307E0064B5B6803F4BF
:10347C000053B3F5005FEED1002318461037BD465C
:10348C0080BD00BF0048025880B582B000AF8C4BA5
:10349C001B6803F00F03022B0FD8894B1B6823F01A
:1034AC000F03874A43F003031360854B1B6803F03B
:1034BC000F03032B01D00123FDE0FEF757F87860D2
:1034CC00804B1B687F4A43F00103136008E0FEF752
:1034DC004DF802467B68D31A022B01D90323EAE08C
:1034EC00784B1B6803F00403002BF0D0754B5B6822
:1034FC00744A43F080435360724B00221A61724B42
:10350C00724A1A60724B714A1A60724B1B681846E9
:10351C00FDF7E2FF0346002B01D00123CBE0FEF7C1
:10352C0025F878600AE0FEF721F802467B68D31A8A
:10353C0041F28832934201D90323BCE0614B1B69F1
:10354C0003F03803002BEED1FEF710F878605D4BDA
:10355C001A685C49604B13400B6008E0FEF706F8F4
:10356C0002467B68D31A642B01D90323A3E0554B85
:10357C001B6803F40033002BF0D1FDF7F7FF7860E4
:10358C00504B1B684F4A23F08073136008E0FDF723
:10359C00EDFF02467B68D31A022B01D903238AE084
:1035AC00484B1B6803F00073002BF0D1FDF7DEFFD6
:1035BC007860444B1B68434A23F08063136008E037
:1035CC00FDF7D4FF02467B68D31A022B01D90323E3
:1035DC0071E03C4B1B6803F00063002BF0D1FDF74E
:1035EC00C5FF7860374B1B68364A23F08053136055
:1035FC0008E0FDF7BBFF02467B68D31A022B01D90A
:10360C00032358E02F4B1B6803F00053002BF0D121
:10361C002C4B00229A612B4B0022DA61294B0022A1
:10362C001A62284B2D4A9A62264B2D4ADA62254B98
:10363C002C4A1A63234B00225A63224B294A9A6361
:10364C00204B0022DA631F4B264A1A641D4B0022C2
:10365C005A641C4B1B681B4A23F480131360194BD0
:10366C001B68184A23F480231360164B00221A6639
:10367C00144B4FF0FF329A66124BD3F83031114A8B
:10368C0043F48033C2F830310D4B1B6803F00C034C
:10369C00002B0FD00A4B1B6823F00F03084A43F092
:1036AC0003031360064B1B6803F00F03032B01D0BD
:1036BC00012300E0002318460837BD4680BD00BF3B
:1036CC000020005200440258000000240090D00357
:1036DC00040000240800002445EDF6FF000202025D
:1036EC000000FF018002010180B58CB000AF786052
:1036FC007B68002B01D10123F3E37B681B6803F08B
:10370C000103002B00F0B3809E4B1B6903F03803C0
:10371C00FB629C4B9B6ABB62FB6A102B07D0FB6A5B
:10372C00182B12D1BB6A03F00303022B0DD1954B5E
:10373C001B6803F40033002B00F098807B685B68F7
:10374C00002B40F093800123CBE37B685B68B3F5DF
:10375C00803F06D18B4B1B688A4A43F4803313603D
:10376C0058E07B685B68002B12D1864B1B68854A3E
:10377C0023F480331360834B1B68824A23F4801339
:10378C001360804B1B687F4A23F48023136041E055
:10379C007B685B68B3F5A02F12D17A4B1B68794A12
:1037AC0043F480231360774B1B68764A23F4801311
:1037BC001360744B1B68734A43F48033136029E025
:1037CC007B685B68B3F5A81F12D16E4B1B686D4A02
:1037DC0043F4802313606B4B1B686A4A43F48013D9
:1037EC001360684B1B68674A43F48033136011E025
:1037FC00644B1B68634A23F480331360614B1B6872
:10380C00604A23F4802313605E4B1B685D4A23F4EB
:10381C00801313607B685B68002B13D0FDF7A6FE4A
:10382C00786208E0FDF7A2FE02467B6AD31A642B8D
:10383C0001D9032355E3534B1B6803F40033002BCE
:10384C00F0D014E0FDF792FE786208E0FDF78EFEF2
:10385C0002467B6AD31A642B01D9032341E3494BFB
:10386C001B6803F40033002BF0D100E000BF7B6831
:10387C001B6803F00203002B00F08C80414B1B698A
:10388C0003F038033B623F4B9B6AFB613B6A002BA6
:10389C0007D03B6A182B37D1FB6903F00303002BCD
:1038AC0032D1384B1B6803F00403002B05D07B6826
:1038BC00DB68002B01D1012313E3324B1B6823F08F
:1038CC0019027B68DB682F4913430B60FDF74EFE32
:1038DC00786208E0FDF74AFE02467B6AD31A022B97
:1038EC0001D90323FDE2274B1B6803F00403002BD3
:1038FC00F0D0244B5B6823F0FE427B681B691B06EF
:10390C00204913434B6045E07B68DB68002B26D0D5
:10391C001C4B1B6823F019027B68DB6819491343A5
:10392C000B60FDF723FE786208E0FDF71FFE0246F0
:10393C007B6AD31A022B01D90323D2E2114B1B68E9
:10394C0003F00403002BF0D00E4B5B6823F0FE4217
:10395C007B681B691B060B4913434B601AE0094B30
:10396C001B68084A23F001031360FDF7FFFD786222
:10397C000AE0FDF7FBFD02467B6AD31A022B03D942
:10398C000323AEE200440258994B1B6803F0040376
:10399C00002BEED17B681B6803F01003002B6AD060
:1039AC00934B1B6903F03803BB61914B9B6A7B61A2
:1039BC00BB69082B07D0BB69182B1BD17B6903F0A3
:1039CC000303012B16D18A4B1B6803F48073002B65
:1039DC0005D07B68DB69802B01D0012381E2844B0D
:1039EC00DB6823F07C527B681B6A1B0680491343FF
:1039FC00CB6040E07B68DB69002B23D07C4B1B68E1
:103A0C007B4A43F080031360FDF7B0FD786208E059
:103A1C00FDF7ACFD02467B6AD31A022B01D90323B6
:103A2C005FE2734B1B6803F48073002BF0D0704B78
:103A3C00DB6823F07C527B681B6A1B066C491343C2
:103A4C00CB6018E06A4B1B68694A23F08003136053
:103A5C00FDF78CFD786208E0FDF788FD02467B6A75
:103A6C00D31A022B01D903233BE2614B1B6803F4ED
:103A7C008073002BF0D17B681B6803F00803002BCC
:103A8C0036D07B685B69002B19D0594B5B6F584A59
:103A9C0043F001035367FDF769FD786208E0FDF719
:103AAC0065FD02467B6AD31A022B01D9032318E267
:103ABC004F4B5B6F03F00203002BF0D018E04C4B24
:103ACC005B6F4B4A23F001035367FDF74FFD7862A0
:103ADC0008E0FDF74BFD02467B6AD31A022B01D995
:103AEC000323FEE1424B5B6F03F00203002BF0D18A
:103AFC007B681B6803F02003002B36D07B689B6926
:103B0C00002B19D03A4B1B68394A43F4805313608D
:103B1C00FDF72CFD786208E0FDF728FD02467B6A74
:103B2C00D31A022B01D90323DBE1314B1B6803F4BD
:103B3C000053002BF0D018E02D4B1B682C4A23F4BB
:103B4C0080531360FDF712FD786208E0FDF70EFD5F
:103B5C0002467B6AD31A022B01D90323C1E1244B01
:103B6C001B6803F40053002BF0D17B681B6803F037
:103B7C000403002B00F0AF801E4B1B681D4A43F45E
:103B8C0080731360FDF7F2FC786208E0FDF7EEFC41
:103B9C0002467B6AD31A642B01D90323A1E1154B8E
:103BAC001B6803F48073002BF0D07B689B68012B9F
:103BBC0006D10F4B1B6F0E4A43F0010313675BE0FA
:103BCC007B689B68002B17D1094B1B6F084A23F0AD
:103BDC0001031367064B1B6F054A23F08003136721
:103BEC00034B1B6F024A23F00403136744E000BF2E
:103BFC0000440258004802587B689B68052B12D180
:103C0C00954B1B6F944A43F004031367924B1B6F45
:103C1C00914A23F0800313678F4B1B6F8E4A43F03E
:103C2C000103136728E07B689B68852B12D18A4BB4
:103C3C001B6F894A43F004031367874B1B6F864A3B
:103C4C0043F080031367844B1B6F834A43F00103DB
:103C5C00136711E0804B1B6F7F4A23F0010313673E
:103C6C007D4B1B6F7C4A23F0040313677A4B1B6F4D
:103C7C00794A23F0800313677B689B68002B15D06F
:103C8C00FDF774FC78620AE0FDF770FC02467B6A73
:103C9C00D31A41F28832934201D9032321E16E4BAE
:103CAC001B6F03F00203002BEED014E0FDF75EFC5B
:103CBC0078620AE0FDF75AFC02467B6AD31A41F29D
:103CCC008832934201D903230BE1634B1B6F03F042
:103CDC000203002BEED17B685B6A002B00F00081A5
:103CEC005D4B1B6903F03803182B00F0BB807B681D
:103CFC005B6A022B40F09580574B1B68564A23F0A9
:103D0C0080731360FDF732FC786208E0FDF72EFC3F
:103D1C0002467B6AD31A022B01D90323E1E04E4BF6
:103D2C001B6803F00073002BF0D14B4B9A6A4B4B82
:103D3C0013407A68916A7A68D26A12010A4346493A
:103D4C0013438B627B681B6B013BC3F308027B68DC
:103D5C005B6B013B5B029BB21A437B689B6B013B29
:103D6C001B0403F4FE031A437B68DB6B013B1B064D
:103D7C0003F0FE43384913430B63374BDB6A364A77
:103D8C0023F00103D362344B5A6B354B13407A68E2
:103D9C00926CD200304913434B632F4BDB6A23F0F8
:103DAC000C027B681B6C2C491343CB622A4BDB6ADD
:103DBC0023F002027B685B6C27491343CB62264BD2
:103DCC00DB6A254A43F48033D362234BDB6A224AF5
:103DDC0043F40033D362204BDB6A1F4A43F4802345
:103DEC00D3621D4BDB6A1C4A43F00103D3621A4BAE
:103DFC001B68194A43F080731360FDF7B7FB7862B8
:103E0C0008E0FDF7B3FB02467B6AD31A022B01D9FB
:103E1C00032366E0104B1B6803F00073002BF0D0FB
:103E2C005EE00D4B1B680C4A23F080731360FDF7AA
:103E3C009DFB786208E0FDF799FB02467B6AD31A7A
:103E4C00022B01D903234CE0034B1B6803F00073D6
:103E5C00002BF0D144E000BF004402580CFCFFFFE3
:103E6C000700FFFF214B9B6A3B61204B1B6BFB60E8
:103E7C007B685B6A012B31D03B6903F003027B68E2
:103E8C009B6A9A422AD13B691B0903F03F027B686B
:103E9C00DB6A9A4222D1FB68C3F308027B681B6B76
:103EAC00013B9A421AD1FB685B0A03F07F027B68E4
:103EBC005B6B013B9A4211D1FB681B0C03F07F0238
:103ECC007B689B6B013B9A4208D1FB681B0E03F08D
:103EDC007F027B68DB6B013B9A4201D0012300E03F
:103EEC00002318463037BD4680BD00BF0044025841
:103EFC0080B586B000AF786039607B68002B01D14B
:103F0C0001239CE18A4B1B6803F00F033A689A4229
:103F1C0010D9874B1B6823F00F0285493B6813436C
:103F2C000B60834B1B6803F00F033A689A4201D075
:103F3C00012384E17B681B6803F00403002B10D081
:103F4C007B681A697B4B9B6903F070039A4208D912
:103F5C00784B9B6923F070027B681B69754913438E
:103F6C008B617B681B6803F00803002B10D07B6807
:103F7C005A69704BDB6903F070039A4208D96D4B98
:103F8C00DB6923F070027B685B696A491343CB6180
:103F9C007B681B6803F01003002B10D07B689A69B8
:103FAC00644BDB6903F4E0639A4208D9614BDB692B
:103FBC0023F4E0627B689B695E491343CB617B68A9
:103FCC001B6803F02003002B10D07B68DA69594B77
:103FDC001B6A03F070039A4208D9564B1B6A23F0F4
:103FEC0070027B68DB69534913430B627B681B6867
:103FFC0003F00203002B10D07B68DA684D4B9B69F1
:10400C0003F00F039A4208D94A4B9B6923F00F0225
:10401C007B68DB68474913438B617B681B6803F043
:10402C000103002B55D0434B9B6923F470627B68D2
:10403C009B68404913438B617B685B68022B07D1FB
:10404C003C4B1B6803F40033002B21D10123F6E019
:10405C007B685B68032B07D1364B1B6803F000733E
:10406C00002B15D10123EAE07B685B68012B07D19B
:10407C00304B1B6803F48073002B09D10123DEE065
:10408C002C4B1B6803F00403002B01D10123D6E059
:10409C00284B1B6923F007027B685B682549134397
:1040AC000B61FDF763FA78610AE0FDF75FFA0246EF
:1040BC007B69D31A41F28832934201D90323BEE0C3
:1040CC001C4B1B6903F038027B685B68DB009A426F
:1040DC00EBD17B681B6803F00203002B10D07B68CC
:1040EC00DA68144B9B6903F00F039A4208D2114B08
:1040FC009B6923F00F027B68DB680E4913438B61CD
:10410C000B4B1B6803F00F033A689A4214D2084B0E
:10411C001B6823F00F0206493B6813430B60044BEA
:10412C001B6803F00F033A689A4205D0012386E01E
:10413C0000200052004402587B681B6803F0040303
:10414C00002B10D07B681A693F4B9B6903F07003FE
:10415C009A4208D23C4B9B6923F070027B681B6926
:10416C00394913438B617B681B6803F00803002BF0
:10417C0010D07B685A69344BDB6903F070039A42A8
:10418C0008D2314BDB6923F070027B685B692E49E6
:10419C001343CB617B681B6803F01003002B10D01A
:1041AC007B689A69284BDB6903F4E0639A4208D276
:1041BC00254BDB6923F4E0627B689B69224913433E
:1041CC00CB617B681B6803F02003002B10D07B684D
:1041DC00DA691D4B1B6A03F070039A4208D21A4B22
:1041EC001B6A23F070027B68DB69174913430B626F
:1041FC0000F034F80246144B9B691B0A03F00F03C2
:10420C001249CB5C03F01F0322FA03F33B610E4B04
:10421C009B6903F00F030D4AD35C03F01F033A694B
:10422C0022FA03F30A4A13600A4A3B6913600A4BE9
:10423C001B681846FDF750F90346FB73FB7B1846C9
:10424C001837BD4680BD00BF00440258505D0008C1
:10425C0004000024000000240800002480B489B06D
:10426C0000AFB34B1B6903F03803182B00F25581D8
:10427C0001A252F823F000BFE942000827450008CC
:10428C002745000827450008274500082745000852
:10429C0027450008274500080F430008274500085C
:1042AC002745000827450008274500082745000832
:1042BC002745000827450008154300082745000836
:1042CC002745000827450008274500082745000812
:1042DC0027450008274500081B430008944B1B6822
:1042EC0003F02003002B09D0914B1B68DB0803F073
:1042FC000303904A22FA03F3BB6111E18D4BBB61BE
:10430C000EE18D4BBB610BE18C4BBB6108E1884B23
:10431C009B6A03F003037B61854B9B6A1B0903F0CB
:10432C003F033B61824BDB6A03F00103FB60804B74
:10433C005B6BDB08C3F30C03FA6802FB03F307EEB9
:10434C00903AF8EE677AC7ED027A3B69002B00F0E1
:10435C00E1807B69022B00F083807B69022B00F2E9
:10436C00A1807B69002B03D07B69012B56D099E08F
:10437C006F4B1B6803F02003002B2DD06C4B1B687C
:10438C00DB0803F003036B4A22FA03F37B607B68C0
:10439C0007EE903AF8EE676A3B6907EE903AF8EE52
:1043AC00677A86EEA77A624B1B6BC3F3080307EEA2
:1043BC00903AF8EE676A97ED026ADFED615AC6EE45
:1043CC00257A76EEA77AF7EE006A77EEA67A67EE94
:1043DC00277AC7ED077A87E03B6907EE903AF8EE4B
:1043EC00677ADFED586A86EEA77A514B1B6BC3F3E5
:1043FC00080307EE903AF8EE676A97ED026ADFED74
:10440C00505AC6EE257A76EEA77AF7EE006A77EE6A
:10441C00A67A67EE277AC7ED077A65E03B6907EE67
:10442C00903AF8EE677ADFED486A86EEA77A404B51
:10443C001B6BC3F3080307EE903AF8EE676A97ED2F
:10444C00026ADFED3F5AC6EE257A76EEA77AF7EED2
:10445C00006A77EEA67A67EE277AC7ED077A43E013
:10446C003B6907EE903AF8EE677ADFED386A86EE34
:10447C00A77A2F4B1B6BC3F3080307EE903AF8EEA9
:10448C00676A97ED026ADFED2E5AC6EE257A76EE54
:10449C00A77AF7EE006A77EEA67A67EE277AC7ED71
:1044AC00077A21E03B6907EE903AF8EE677ADFED88
:1044BC00266A86EEA77A1E4B1B6BC3F3080307EE26
:1044CC00903AF8EE676A97ED026ADFED1D5AC6EE78
:1044DC00257A76EEA77AF7EE006A77EEA67A67EE83
:1044EC00277AC7ED077A00BF114B1B6B5B0A03F0F1
:1044FC007F0301333B603B6807EE903AB8EE677A76
:10450C00D7ED076AC6EE877AFCEEE77A17EE903A9B
:10451C00BB6105E00023BB6102E0074BBB6100BF40
:10452C00BB6918462437BD465DF8047B704700BF55
:10453C00004402580090D00300093D000024F40010
:10454C00000000460024744C0024744A0024744B70
:10455C0080B586B000AF78600023FB750023BB7577
:10456C007B681B6803F00063002B3FD07B689B6E5D
:10457C00B3F5401F2AD0B3F5401F24D8B3F5001F64
:10458C0018D0B3F5001F1ED8002B03D0B3F5801F35
:10459C0007D018E0A64BDB6AA54A43F40033D3627C
:1045AC0015E07B6804330221184600F0DDFE03465B
:1045BC00FB750CE07B6824330221184600F086FF63
:1045CC000346FB7503E00123FB7500E000BFFB7D98
:1045DC00002B09D1964B1B6D23F440127B689B6E0C
:1045EC00934913430B6501E0FB7DBB757B681B682E
:1045FC0003F48073002B3DD07B685B6D042B26D8B5
:10460C0001A252F823F000BF2946000837460008E3
:10461C00494600086146000861460008844BDB6A85
:10462C00834A43F40033D36215E07B6804330021E2
:10463C00184600F099FE0346FB750CE07B682433AA
:10464C000021184600F042FF0346FB7503E00123EE
:10465C00FB7500E000BFFB7D002B09D1744B1B6D7B
:10466C0023F007027B685B6D714913430B6501E016
:10467C00FB7DBB757B681B6803F40073002B4AD071
:10468C007B689B6DB3F5A07F31D0B3F5A07F2BD8A1
:10469C00B3F5807F2DD0B3F5807F25D8C02B2AD0E1
:1046AC00C02B21D8802B16D0802B1DD8002B02D0EC
:1046BC00402B07D018E05E4BDB6A5D4A43F40033B5
:1046CC00D36219E07B6804330021184600F04CFEDD
:1046DC000346FB7510E07B6824330021184600F07C
:1046EC00F5FE0346FB7507E00123FB7504E000BFF4
:1046FC0002E000BF00E000BFFB7D002B09D14C4B5A
:10470C001B6D23F4E0727B689B6D494913430B6569
:10471C0001E0FB7DBB757B681B6803F48063002B99
:10472C004FD07B68DB6DB3F5206F36D0B3F5206FBF
:10473C0030D8B3F5006F32D0B3F5006F2AD8B3F58B
:10474C00C06F2ED0B3F5C06F24D8B3F5806F18D0DE
:10475C00B3F5806F1ED8002B03D0B3F5007F07D0C4
:10476C0018E0334BDB6A324A43F40033D36219E06E
:10477C007B6804330021184600F0F6FD0346FB75F8
:10478C0010E07B6824330021184600F09FFE03469E
:10479C00FB7507E00123FB7504E000BF02E000BFDE
:1047AC0000E000BFFB7D002B09D1214B1B6D23F4D6
:1047BC0060627B68DB6D1E4913430B6501E0FB7D7A
:1047CC00BB757B681B6803F00073002B34D07B68CF
:1047DC009B6C302B1CD0302B17D8202B0CD0202BC3
:1047EC0013D8002B16D0102B0FD1114BDB6A104AAB
:1047FC0043F40033D3620EE07B6804330221184685
:10480C0000F0B2FD0346FB7505E00123FB7502E0E9
:10481C0000BF00E000BFFB7D002B0BD1044BDB6C19
:10482C0023F030027B689B6C01491343CB6403E09B
:10483C0000440258FB7DBB757B681B6803F48053F6
:10484C00002B47D07B681B6EB3F5804F30D0B3F58F
:10485C00804F2AD8B3F5405F2CD0B3F5405F24D8F5
:10486C00B3F5005F18D0B3F5005F1ED8002B03D052
:10487C00B3F5805F07D018E0B04BDB6AAF4A43F466
:10488C000033D36217E07B6804330021184600F034
:10489C006BFD0346FB750EE07B6824330021184644
:1048AC0000F014FE0346FB7505E00123FB7502E0E6
:1048BC0000BF00E000BFFB7D002B09D19F4B1B6D9F
:1048CC0023F4E0427B681B6E9C4913430B6501E0AB
:1048DC00FB7DBB757B681B6803F40053002B49D030
:1048EC007B685B6EB3F5A02F2ED0B3F5A02F28D824
:1048FC00B3F5802F2AD0B3F5802F22D8B3F5403FE3
:10490C0026D0B3F5403F1CD8B3F5003F10D0B3F51B
:10491C00003F16D8002B1DD0B3F5803F11D17B681A
:10492C0004330121184600F01FFD0346FB7512E00D
:10493C007B6824330121184600F0C8FD0346FB7543
:10494C0009E00123FB7506E000BF04E000BF02E0B4
:10495C0000BF00E000BFFB7D002B09D1774B1B6D26
:10496C0023F4E0227B685B6E744913430B6501E012
:10497C00FB7DBB757B681B6803F48043002B53D015
:10498C007B68D3F8AC30B3F1C04F34D0B3F1C04F27
:10499C002ED8B3F1A04F30D0B3F1A04F28D8B3F13B
:1049AC00804F2CD0B3F1804F22D8B3F1405F28D088
:1049BC00B3F1405F1CD8B3F1005F10D0B3F1005FCE
:1049CC0016D8002B1FD0B3F1805F11D17B68043354
:1049DC000121184600F0C8FC0346FB7514E07B6807
:1049EC0024330121184600F071FD0346FB750BE0E2
:1049FC000123FB7508E000BF06E000BF04E000BF28
:104A0C0002E000BF00E000BFFB7D002B0AD14B4B46
:104A1C009B6D23F0E0427B68D3F8AC3047491343DD
:104A2C008B6501E0FB7DBB757B681B6803F4004361
:104A3C00002B2FD07B685B6FB3F1005F0ED0B3F10E
:104A4C00005F14D8002B15D0B3F1805F0FD13B4B16
:104A5C00DB6A3A4A43F40033D3620CE07B680433DC
:104A6C000121184600F080FC0346FB7503E001238E
:104A7C00FB7500E000BFFB7D002B09D12F4B1B6D9C
:104A8C0023F040527B685B6F2C4913430B6501E0AC
:104A9C00FB7DBB757B681B6803F08073002B32D0E9
:104AAC007B685B6C032B1BD801A252F823F000BF70
:104ABC00F34A0008CD4A0008DB4A0008F34A000814
:104ACC001E4BDB6A1D4A43F40033D3620CE07B6857
:104ADC0004330221184600F047FC0346FB7503E043
:104AEC000123FB7500E000BFFB7D002B09D1134BAC
:104AFC00DB6C23F003027B685B6C10491343CB64C3
:104B0C0001E0FB7DBB757B681B6803F48003002B05
:104B1C0000F08A800A4B1B68094A43F480731360C7
:104B2C00FCF724FD38610DE0FCF720FD02463B69E3
:104B3C00D31A642B06D90323FB7509E000440258F1
:104B4C0000480258BA4B1B6803F48073002BEBD05F
:104B5C00FB7D002B66D1B74B1A6F7B68D3F8B03056
:104B6C00534003F44073002B13D0B24B1B6F23F450
:104B7C004073FB60AF4B1B6FAE4A43F4803313673B
:104B8C00AC4B1B6FAB4A23F480331367A94AFB6809
:104B9C0013677B68D3F8B030B3F5807F15D1FCF781
:104BAC00E5FC38610BE0FCF7E1FC02463B69D31AEB
:104BBC0041F28832934202D90323FB7505E09D4BE9
:104BCC001B6F03F00203002BEDD0FB7D002B26D1D5
:104BDC007B68D3F8B03003F44073B3F5407F0DD14C
:104BEC00944B1B6923F47C527B68D3F8B0301909C1
:104BFC00914B0B408F4913430B6105E08D4B1B69A7
:104C0C008C4A23F47C5313618A4B1A6F7B68D3F85C
:104C1C00B030C3F30B03874913430B6704E0FB7DF0
:104C2C00BB7501E0FB7DBB757B681B6803F0010362
:104C3C00002B7FD07B68D3F88030282B66D801A25C
:104C4C0052F823F01F4D0008194D0008194D0008AB
:104C5C00194D0008194D0008194D0008194D000890
:104C6C00194D0008F54C0008194D0008194D0008A5
:104C7C00194D0008194D0008194D0008194D000870
:104C8C00194D0008074D0008194D0008194D000872
:104C9C00194D0008194D0008194D0008194D000850
:104CAC00194D00081F4D0008194D0008194D00083A
:104CBC00194D0008194D0008194D0008194D000830
:104CCC00194D00081F4D0008194D0008194D00081A
:104CDC00194D0008194D0008194D0008194D000810
:104CEC00194D00081F4D00087B680433012118463C
:104CFC0000F03AFB0346FB750CE07B682433012182
:104D0C00184600F0E3FB0346FB7503E00123FB753B
:104D1C0000E000BFFB7D002B0AD1464B5B6D23F0FE
:104D2C0038027B68D3F88030424913434B6501E06D
:104D3C00FB7DBB757B681B6803F00203002B38D02E
:104D4C007B68DB6F052B21D801A252F823F000BF42
:104D5C009F4D0008754D0008874D00089F4D0008B9
:104D6C009F4D00089F4D00087B68043301211846B5
:104D7C0000F0FAFA0346FB750CE07B682433012142
:104D8C00184600F0A3FB0346FB7503E00123FB75FB
:104D9C0000E000BFFB7D002B09D1264B5B6D23F09F
:104DAC0007027B68DB6F234913434B6501E0FB7DF6
:104DBC00BB757B681B6803F00403002B40D07B6839
:104DCC00D3F89830052B21D801A252F823F000BF5C
:104DDC001F4E0008F54D0008074E00081F4E000836
:104DEC001F4E00081F4E00087B6804330121184633
:104DFC0000F0BAFA0346FB750CE07B682433012102
:104E0C00184600F063FB0346FB7503E00123FB75BA
:104E1C0000E000BFFB7D002B10D1064B9B6D23F0F7
:104E2C0007027B68D3F89830024913438B6507E07F
:104E3C000048025800440258CFFFFF00FB7DBB75B1
:104E4C007B681B6803F02003002B4BD07B68D3F8E6
:104E5C009430B3F1A04F2ED0B3F1A04F28D8B3F1BA
:104E6C00804F2AD0B3F1804F22D8B3F1405F26D0C7
:104E7C00B3F1405F1CD8B3F1005F10D0B3F1005F09
:104E8C0016D8002B1DD0B3F1805F11D17B68043391
:104E9C000021184600F068FA0346FB7512E07B68A7
:104EAC0024330221184600F011FB0346FB7509E080
:104EBC000123FB7506E000BF04E000BF02E000BF69
:104ECC0000E000BFFB7D002B0AD1B34B5B6D23F0E0
:104EDC00E0427B68D3F89430AF4913434B6501E053
:104EEC00FB7DBB757B681B6803F04003002B4BD02C
:104EFC007B68D3F8A030B3F5A05F2ED0B3F5A05FDC
:104F0C0028D8B3F5805F2AD0B3F5805F22D8B3F5EB
:104F1C00406F26D0B3F5406F1CD8B3F5006F10D09E
:104F2C00B3F5006F16D8002B1DD0B3F5806F11D1DF
:104F3C007B6804330021184600F016FA0346FB7513
:104F4C0012E07B6824330221184600F0BFFA0346B6
:104F5C00FB7509E00123FB7506E000BF04E000BF10
:104F6C0002E000BF00E000BFFB7D002B0AD18A4BA2
:104F7C009B6D23F4E0527B68D3F8A0308649134331
:104F8C008B6501E0FB7DBB757B681B6803F08003C0
:104F9C00002B4BD07B68D3F8A430B3F5204F2ED028
:104FAC00B3F5204F28D8B3F5004F2AD0B3F5004FF6
:104FBC0022D8B3F5C04F26D0B3F5C04F1CD8B3F5EB
:104FCC00804F10D0B3F5804F16D8002B1DD0B3F501
:104FDC00005F11D17B6804330021184600F0C4F93E
:104FEC000346FB7512E07B6824330221184600F05F
:104FFC006DFA0346FB7509E00123FB7506E000BF63
:10500C0004E000BF02E000BF00E000BFFB7D002B0E
:10501C000AD1614B9B6D23F460427B68D3F8A430BA
:10502C005D4913438B6501E0FB7DBB757B681B6899
:10503C0003F00803002B1AD07B68D3F88830B3F543
:10504C00805F0AD17B6824330221184600F03EFAB7
:10505C000346002B01D00123BB754F4B5B6D23F432
:10506C0040527B68D3F888304B4913434B657B68BF
:10507C001B6803F01003002B1AD07B68D3F89C300C
:10508C00B3F5807F0AD17B6824330221184600F0E7
:10509C001DFA0346002B01D00123BB753E4B9B6DC3
:1050AC0023F440727B68D3F89C303B4913438B65E7
:1050BC007B681B6803F40023002B34D07B68D3F887
:1050CC00A830B3F5003F1DD0B3F5003F17D8002B27
:1050DC0003D0B3F5803F09D011E07B680433002185
:1050EC00184600F041F90346FB750CE07B6824334D
:1050FC000221184600F0EAF90346FB7503E0012390
:10510C00FB7500E000BFFB7D002B0AD1224B9B6D91
:10511C0023F440327B68D3F8A8301F4913438B65C6
:10512C0001E0FB7DBB757B681B6803F48023002BBF
:10513C0036D07B68D3F88C30B3F5401F1CD0B3F558
:10514C00401F16D8B3F5801F03D0B3F5001F07D04E
:10515C000FE0114BDB6A104A43F40033D3620CE0CE
:10516C007B6824330121184600F0B0F90346FB7527
:10517C0003E00123FB7500E000BFFB7D002B0DD18C
:10518C00054B5B6D23F440127B68D3F88C300249DD
:10519C0013434B6504E000BF00440258FB7DBB7514
:1051AC007B681B6803F48033002B29D07B68DB6C95
:1051BC00002B03D0B3F5803F07D00FE0694BDB6ABF
:1051CC00684A43F40033D3620BE07B68043302215A
:1051DC00184600F0C9F80346FB7502E00123FB7585
:1051EC0000BFFB7D002B09D15E4BDB6C23F48032BE
:1051FC007B68DB6C5B491343CB6401E0FB7DBB75C7
:10520C007B681B6803F00053002B0AD07B682433A7
:10521C000221184600F05AF90346002B01D0012355
:10522C00BB757B681B6803F40033002B32D07B68A2
:10523C00D3F88430B3F5407F17D0B3F5407F11D845
:10524C00B3F5007F13D0B3F5007F0BD8002B10D033
:10525C00B3F5807F06D1434BDB6A424A43F40033FB
:10526C00D36207E00123FB7504E000BF02E000BF3E
:10527C0000E000BFFB7D002B0AD13A4B5B6D23F4A1
:10528C0040727B68D3F88430364913434B6501E098
:10529C00FB7DBB757B681B6803F48013002B08D067
:1052AC00304B1B6D23F000427B689B6F2D491343E1
:1052BC000B657B681B6803F40013002B08D0294B8B
:1052CC001B6D23F080727B68DB6E264913430B65E4
:1052DC007B681B6803F40063002B08D0214B9B6D8B
:1052EC0023F000627B681B6F1E4913438B657B6840
:1052FC001B6803F08043002B0DD01A4B1B69194A15
:10530C0023F400431361174B1A697B68D3F8B4304C
:10531C00144913430B617B681B68002B08DA114B93
:10532C00DB6C23F040527B681B6D0E491343CB643E
:10533C007B681B6803F40003002B09D0094B5B6DE1
:10534C0023F440027B68D3F89030064913434B6535
:10535C00BB7D002B01D1002300E001231846183738
:10536C00BD4680BD0044025880B584B000AF786063
:10537C0039600023FB73534B9B6A03F00303032B2D
:10538C0001D1012399E04F4B1B684E4A23F08063F7
:10539C001360FCF7EBF8B86008E0FCF7E7F802469E
:1053AC00BB68D31A022B01D9032386E0454B1B683B
:1053BC0003F00063002BF0D1424B9B6A23F47C3248
:1053CC007B681B681B033F4913438B627B685B68DC
:1053DC00013BC3F308027B689B68013B5B029BB2F9
:1053EC001A437B68DB68013B1B0403F4FE031A437E
:1053FC007B681B69013B1B0603F0FE4331491343D9
:10540C008B63304BDB6A23F0C0027B685B692D49F0
:10541C001343CB622B4BDB6A23F020027B689B6926
:10542C0028491343CB62274BDB6A264A23F010032F
:10543C00D362244BDA6B244B13407A68D269D200C6
:10544C0020491343CB631F4BDB6A1E4A43F0100306
:10545C00D3623B68002B06D11A4BDB6A194A43F422
:10546C000023D3620FE03B68012B06D1154BDB6A9E
:10547C00144A43F48013D36205E0124BDB6A114AE1
:10548C0043F40013D3620F4B1B680E4A43F0806346
:10549C001360FCF76BF8B86008E0FCF767F802469D
:1054AC00BB68D31A022B01D9032306E0054B1B68FA
:1054BC0003F00063002BF0D0FB7B18461037BD4681
:1054CC0080BD00BF004402580700FFFF80B584B0C8
:1054DC0000AF786039600023FB73534B9B6A03F079
:1054EC000303032B01D1012399E04F4B1B684E4A58
:1054FC0023F080531360FCF739F8B86008E0FCF730
:10550C0035F80246BB68D31A022B01D9032386E077
:10551C00454B1B6803F00053002BF0D1424B9B6AA8
:10552C0023F07C727B681B681B053F4913438B621D
:10553C007B685B68013BC3F308027B689B68013B9B
:10554C005B029BB21A437B68DB68013B1B0403F4D0
:10555C00FE031A437B681B69013B1B0603F0FE43E9
:10556C00314913430B64304BDB6A23F440627B6894
:10557C005B692D491343CB622B4BDB6A23F400721E
:10558C007B689B6928491343CB62274BDB6A264A0D
:10559C0023F48073D362244B5A6C244B13407A68E7
:1055AC00D269D200204913434B641F4BDB6A1E4A5D
:1055BC0043F48073D3623B68002B06D11A4BDB6A31
:1055CC00194A43F48003D3620FE03B68012B06D1E8
:1055DC00154BDB6A144A43F40003D36205E0124B0B
:1055EC00DB6A114A43F08073D3620F4B1B680E4A7F
:1055FC0043F080531360FBF7B9FFB86008E0FBF78A
:10560C00B5FF0246BB68D31A022B01D9032306E06F
:10561C00054B1B6803F00053002BF0D0FB7B1846A6
:10562C001037BD4680BD00BF004402580700FFFF85
:10563C0080B582B000AF78607B68002B01D101236C
:10564C0049E07B6893F83D30DBB2002B06D17B68D8
:10565C00002283F83C207868FBF7B6FE7B680222B8
:10566C0083F83D207B681A687B6804331946104622
:10567C0000F078F87B68012283F848207B680122CF
:10568C0083F83E207B68012283F83F207B6801224F
:10569C0083F840207B68012283F841207B6801223B
:1056AC0083F842207B68012283F843207B68012227
:1056BC0083F844207B68012283F845207B68012213
:1056CC0083F846207B68012283F847207B680122FF
:1056DC0083F83D20002318460837BD4680BD80B5B1
:1056EC0082B000AF786039607B6893F83C30012B56
:1056FC0001D1022331E07B68012283F83C207B68D6
:10570C00022283F83D203968786800F0C5F803461A
:10571C00002B09D07B68012283F83D207B68002296
:10572C0083F83C20012318E07B681B68DA687B68EF
:10573C001B6822F04002DA607B681B68DA687B68C1
:10574C001B6822F48042DA607B68012283F83D20DA
:10575C007B68002283F83C20002318460837BD469E
:10576C0080BD000080B485B000AF786039607B6884
:10577C001B68FB607B68404A934213D07B68B3F193
:10578C00804F0FD07B683D4A93420BD07B683C4ADC
:10579C00934207D07B683B4A934203D07B683A4ADA
:1057AC00934208D1FB6823F07003FB603B685B6895
:1057BC00FA681343FB607B682F4A93421FD07B68C7
:1057CC00B3F1804F1BD07B682C4A934217D07B6877
:1057DC002B4A934213D07B682A4A93420FD07B68A2
:1057EC00294A93420BD07B68284A934207D07B68A6
:1057FC00274A934203D07B68264A934208D1FB6820
:10580C0023F44073FB603B68DB68FA681343FB606E
:10581C00FB6823F080023B685B691343FB607B6889
:10582C00FA681A603B689A687B68DA623B681A68A7
:10583C007B689A627B68104A93420FD07B68124A4D
:10584C0093420BD07B68114A934207D07B68104A75
:10585C00934203D07B680F4A934203D13B681A6989
:10586C007B681A637B6801225A6100BF1437BD46FE
:10587C005DF8047B704700BF00000140000400404D
:10588C0000080040000C00400004014000400140B2
:10589C00004401400048014080B586B000AF7860FC
:1058AC0039600023FB757B681B689B683B613A6918
:1058BC00654B13403B613B685B683A6913433B6142
:1058CC003A69624B13403B613B681B683A6913436E
:1058DC003B617B681B683A699A603B685B685C4A11
:1058EC00934200F0AB805A4A934200F2A480B3F585
:1058FC00001F00F0A380B3F5001F00F29C80554AF6
:10590C00934200F09B80534A934200F29480524A97
:10591C00934200F09380504A934200F28C804F4A9D
:10592C00934200F08B804D4A934200F284804C4AA3
:10593C00934200F083804A4A93427CD8494A93426E
:10594C007CD0484A934276D8474A934276D0464A0E
:10595C00934270D8B3F1101F70D0B3F1101F6AD8F6
:10596C00B3F5801F6AD0B3F5801F64D8702B1AD0A2
:10597C00702B60D8602B54D0602B5CD8502B46D049
:10598C00502B58D8402B19D0402B54D8302B55D0F5
:10599C00302B50D8202B51D0202B4CD8002B4DD055
:1059AC00102B4BD047E07B6818683B68D9683B6884
:1059BC009A683B681B6900F0B8F840E03B681B68CC
:1059CC00052B01D101233BE07B681B681B6AFB6044
:1059DC007B681B681A6A7B681B6822F001021A62DA
:1059EC007B681B689B69BB60BB6823F0F003BB60E2
:1059FC003B681B691B01BA681343BB607B681B685F
:105A0C00BA689A617B681B68FA681A6217E07B684F
:105A1C0018683B6899683B681B691A4600F026F8C1
:105A2C000DE07B6818683B6899683B681B691A46EF
:105A3C0000F04BF803E00123FB7500E000BFFB7D99
:105A4C0018461837BD4680BD8FFFCFFFF8FFFEFF0D
:105A5C0010002000700010006000100050001000BA
:105A6C0040001000300010002000100080B487B0FF
:105A7C0000AFF860B9607A60FB681B6A7B61FB68F9
:105A8C001B6A23F00102FB681A62FB689B693B618D
:105A9C003B6923F0F0033B617B681B013A691343BC
:105AAC003B617B6923F00A037B617A69BB68134312
:105ABC007B61FB683A699A61FB687A691A6200BF7C
:105ACC001C37BD465DF8047B704780B487B000AFCF
